{
  "contractName": "DealList",
  "abi": [
    {
      "constant": true,
      "inputs": [
        {
          "name": "",
          "type": "uint256"
        }
      ],
      "name": "tasks",
      "outputs": [
        {
          "name": "id",
          "type": "uint256"
        },
        {
          "name": "content",
          "type": "string"
        },
        {
          "name": "completed",
          "type": "bool"
        }
      ],
      "payable": false,
      "stateMutability": "view",
      "type": "function",
      "signature": "0x8d977672"
    },
    {
      "constant": true,
      "inputs": [],
      "name": "taskCount",
      "outputs": [
        {
          "name": "",
          "type": "uint256"
        }
      ],
      "payable": false,
      "stateMutability": "view",
      "type": "function",
      "signature": "0xb6cb58a5"
    },
    {
      "inputs": [],
      "payable": false,
      "stateMutability": "nonpayable",
      "type": "constructor",
      "signature": "constructor"
    },
    {
      "anonymous": false,
      "inputs": [
        {
          "indexed": false,
          "name": "id",
          "type": "uint256"
        },
        {
          "indexed": false,
          "name": "content",
          "type": "string"
        },
        {
          "indexed": false,
          "name": "completed",
          "type": "bool"
        }
      ],
      "name": "TaskCreated",
      "type": "event",
      "signature": "0x05d0fb833127fc08168556d0e7ca9554fc3f6bc843b3b7d2bf1c35aea6bab660"
    },
    {
      "anonymous": false,
      "inputs": [
        {
          "indexed": false,
          "name": "id",
          "type": "uint256"
        },
        {
          "indexed": false,
          "name": "completed",
          "type": "bool"
        }
      ],
      "name": "TaskCompleted",
      "type": "event",
      "signature": "0xe21fa966ca5cd02748c0752352d18c48165e61cb55b4c29cccf924b5a95fcff1"
    },
    {
      "constant": true,
      "inputs": [
        {
          "name": "account",
          "type": "address"
        }
      ],
      "name": "toString",
      "outputs": [
        {
          "name": "",
          "type": "string"
        }
      ],
      "payable": false,
      "stateMutability": "pure",
      "type": "function",
      "signature": "0x56ca623e"
    },
    {
      "constant": true,
      "inputs": [
        {
          "name": "value",
          "type": "uint256"
        }
      ],
      "name": "toString",
      "outputs": [
        {
          "name": "",
          "type": "string"
        }
      ],
      "payable": false,
      "stateMutability": "pure",
      "type": "function",
      "signature": "0x6900a3ae"
    },
    {
      "constant": true,
      "inputs": [
        {
          "name": "data",
          "type": "bytes"
        }
      ],
      "name": "toString",
      "outputs": [
        {
          "name": "",
          "type": "string"
        }
      ],
      "payable": false,
      "stateMutability": "pure",
      "type": "function",
      "signature": "0x71aad10d"
    },
    {
      "constant": true,
      "inputs": [
        {
          "name": "value",
          "type": "bytes32"
        }
      ],
      "name": "toString",
      "outputs": [
        {
          "name": "",
          "type": "string"
        }
      ],
      "payable": false,
      "stateMutability": "pure",
      "type": "function",
      "signature": "0xb11a19e8"
    },
    {
      "constant": false,
      "inputs": [
        {
          "name": "_content",
          "type": "string"
        }
      ],
      "name": "createTask",
      "outputs": [],
      "payable": false,
      "stateMutability": "nonpayable",
      "type": "function",
      "signature": "0x111002aa"
    },
    {
      "constant": false,
      "inputs": [
        {
          "name": "_id",
          "type": "uint256"
        }
      ],
      "name": "toggleCompleted",
      "outputs": [],
      "payable": false,
      "stateMutability": "nonpayable",
      "type": "function",
      "signature": "0x455f5024"
    }
  ],
  "bytecode": "0x6080604052600080553480156200001557600080fd5b5060408051808201909152601281527f57656c636f6d6520746f2041797967726565000000000000000000000000000060208201526200005e9064010000000062000064810204565b620007a3565b60008054600101908190556040805160608101909152908152339060208101620000978364010000000062000343810204565b846040516020018083805190602001908083835b60208310620000cc5780518252601f199092019160209182019101620000ab565b51815160209384036101000a60001901801990921691161790527f2073617973200000000000000000000000000000000000000000000000000000919093019081528451600690910192850191508083835b602083106200013f5780518252601f1990920191602091820191016200011e565b51815160209384036101000a60001901801990921691161790526040805192909401828103601f190183528452908752600096810187905286548752600180825292909620875181558787015180519197620001a8975093880195509092019250620006fe9050565b50604091909101516002909101805460ff19169115159190911790556000547f05d0fb833127fc08168556d0e7ca9554fc3f6bc843b3b7d2bf1c35aea6bab66090620001fd8364010000000062000343810204565b846040516020018083805190602001908083835b60208310620002325780518252601f19909201916020918201910162000211565b51815160209384036101000a600019018019909216911617905285519190930192850191508083835b602083106200027c5780518252601f1990920191602091820191016200025b565b6001836020036101000a038019825116818451168082178552505050505050905001925050506040516020818303038152906040526000604051808481526020018060200183151515158152602001828103825284818151815260200191508051906020019080838360005b8381101562000302578181015183820152602001620002e8565b50505050905090810190601f168015620003305780820380516001836020036101000a031916815260200191505b5094505050505060405180910390a15050565b604080516c01000000000000000000000000600160a060020a0384160260208201528151808203601401815260349091019091526060906200038e9064010000000062000394810204565b92915050565b6060806040805190810160405280601081526020017f30313233343536373839616263646566000000000000000000000000000000008152509050606083516002026002016040519080825280601f01601f19166020018201604052801562000404576020820181803883390190505b5090507f30000000000000000000000000000000000000000000000000000000000000008160008151811015156200043857fe5b906020010190600160f860020a031916908160001a9053507f78000000000000000000000000000000000000000000000000000000000000008160018151811015156200048157fe5b906020010190600160f860020a031916908160001a90535060005b8451811015620006f6578260048683815181101515620004b857fe5b9060200101517f010000000000000000000000000000000000000000000000000000000000000090047f010000000000000000000000000000000000000000000000000000000000000002600160f860020a031916908060020a82049150507f0100000000000000000000000000000000000000000000000000000000000000900460ff168151811015156200054a57fe5b9060200101517f010000000000000000000000000000000000000000000000000000000000000090047f0100000000000000000000000000000000000000000000000000000000000000028282600202600201815181101515620005aa57fe5b906020010190600160f860020a031916908160001a905350828582815181101515620005d257fe5b9060200101517f010000000000000000000000000000000000000000000000000000000000000090047f010000000000000000000000000000000000000000000000000000000000000002600f7f010000000000000000000000000000000000000000000000000000000000000002167f0100000000000000000000000000000000000000000000000000000000000000900460ff168151811015156200067557fe5b9060200101517f010000000000000000000000000000000000000000000000000000000000000090047f0100000000000000000000000000000000000000000000000000000000000000028282600202600301815181101515620006d557fe5b906020010190600160f860020a031916908160001a9053506001016200049c565b509392505050565b828054600181600116156101000203166002900490600052602060002090601f016020900481019282601f106200074157805160ff191683800117855562000771565b8280016001018555821562000771579182015b828111156200077157825182559160200191906001019062000754565b506200077f92915062000783565b5090565b620007a091905b808211156200077f57600081556001016200078a565b90565b610c3e80620007b36000396000f3fe60806040526004361061008d5763ffffffff7c0100000000000000000000000000000000000000000000000000000000600035041663111002aa8114610092578063455f50241461014757806356ca623e146101715780636900a3ae1461022657806371aad10d146102505780638d97767214610303578063b11a19e814610226578063b6cb58a5146103b7575b600080fd5b34801561009e57600080fd5b50610145600480360360208110156100b557600080fd5b8101906020810181356401000000008111156100d057600080fd5b8201836020820111156100e257600080fd5b8035906020019184600183028401116401000000008311171561010457600080fd5b91908080601f0160208091040260200160405190810160405280939291908181526020018383808284376000920191909152509295506103de945050505050565b005b34801561015357600080fd5b506101456004803603602081101561016a57600080fd5b503561069a565b34801561017d57600080fd5b506101b16004803603602081101561019457600080fd5b503573ffffffffffffffffffffffffffffffffffffffff166107fa565b6040805160208082528351818301528351919283929083019185019080838360005b838110156101eb5781810151838201526020016101d3565b50505050905090810190601f1680156102185780820380516001836020036101000a031916815260200191505b509250505060405180910390f35b34801561023257600080fd5b506101b16004803603602081101561024957600080fd5b503561084d565b34801561025c57600080fd5b506101b16004803603602081101561027357600080fd5b81019060208101813564010000000081111561028e57600080fd5b8201836020820111156102a057600080fd5b803590602001918460018302840111640100000000831117156102c257600080fd5b91908080601f016020809104026020016040519081016040528093929190818152602001838380828437600092019190915250929550610873945050505050565b34801561030f57600080fd5b5061032d6004803603602081101561032657600080fd5b5035610a9e565b604051808481526020018060200183151515158152602001828103825284818151815260200191508051906020019080838360005b8381101561037a578181015183820152602001610362565b50505050905090810190601f1680156103a75780820380516001836020036101000a031916815260200191505b5094505050505060405180910390f35b3480156103c357600080fd5b506103cc610b4d565b60408051918252519081900360200190f35b60008054600101908190556040805160608101909152908152339060208101610406836107fa565b846040516020018083805190602001908083835b602083106104395780518252601f19909201916020918201910161041a565b51815160209384036101000a60001901801990921691161790527f2073617973200000000000000000000000000000000000000000000000000000919093019081528451600690910192850191508083835b602083106104aa5780518252601f19909201916020918201910161048b565b51815160209384036101000a60001901801990921691161790526040805192909401828103601f190183528452908752600096810187905286548752600180825292909620875181558787015180519197610511975093880195509092019250610b539050565b50604091909101516002909101805460ff19169115159190911790556000547f05d0fb833127fc08168556d0e7ca9554fc3f6bc843b3b7d2bf1c35aea6bab6609061055b836107fa565b846040516020018083805190602001908083835b6020831061058e5780518252601f19909201916020918201910161056f565b51815160209384036101000a600019018019909216911617905285519190930192850191508083835b602083106105d65780518252601f1990920191602091820191016105b7565b6001836020036101000a038019825116818451168082178552505050505050905001925050506040516020818303038152906040526000604051808481526020018060200183151515158152602001828103825284818151815260200191508051906020019080838360005b8381101561065a578181015183820152602001610642565b50505050905090810190601f1680156106875780820380516001836020036101000a031916815260200191505b5094505050505060405180910390a15050565b6106a2610bd1565b60008281526001602081815260409283902083516060810185528154815281840180548651600296821615610100026000190190911695909504601f8101859004850286018501909652858552909491938584019390929083018282801561074b5780601f106107205761010080835404028352916020019161074b565b820191906000526020600020905b81548152906001019060200180831161072e57829003601f168201915b50505091835250506002919091015460ff1615156020918201526040808301805115905260008581526001808452919020835181558383015180519495508594919361079c93850192910190610b53565b50604091820151600291909101805460ff1916911515919091179055818101518151848152901515602082015281517fe21fa966ca5cd02748c0752352d18c48165e61cb55b4c29cccf924b5a95fcff1929181900390910190a15050565b604080516c0100000000000000000000000073ffffffffffffffffffffffffffffffffffffffff841602602082015281518082036014018152603490910190915260609061084790610873565b92915050565b606061084782604051602001808281526020019150506040516020818303038152906040525b6060806040805190810160405280601081526020017f30313233343536373839616263646566000000000000000000000000000000008152509050606083516002026002016040519080825280601f01601f1916602001820160405280156108e2576020820181803883390190505b5090507f300000000000000000000000000000000000000000000000000000000000000081600081518110151561091557fe5b906020010190600160f860020a031916908160001a9053507f780000000000000000000000000000000000000000000000000000000000000081600181518110151561095d57fe5b906020010190600160f860020a031916908160001a90535060005b8451811015610a9657826004868381518110151561099257fe5b90602001015160f860020a900460f860020a02600160f860020a031916908060020a820491505060f860020a900460ff168151811015156109cf57fe5b90602001015160f860020a900460f860020a0282826002026002018151811015156109f657fe5b906020010190600160f860020a031916908160001a905350828582815181101515610a1d57fe5b90602001015160f860020a900460f860020a02600f60f860020a021660f860020a900460ff16815181101515610a4f57fe5b90602001015160f860020a900460f860020a028282600202600301815181101515610a7657fe5b906020010190600160f860020a031916908160001a905350600101610978565b509392505050565b600160208181526000928352604092839020805481840180548651600296821615610100026000190190911695909504601f81018590048502860185019096528585529094919392909190830182828015610b3a5780601f10610b0f57610100808354040283529160200191610b3a565b820191906000526020600020905b815481529060010190602001808311610b1d57829003601f168201915b5050506002909301549192505060ff1683565b60005481565b828054600181600116156101000203166002900490600052602060002090601f016020900481019282601f10610b9457805160ff1916838001178555610bc1565b82800160010185558215610bc1579182015b82811115610bc1578251825591602001919060010190610ba6565b50610bcd929150610bf5565b5090565b60606040519081016040528060008152602001606081526020016000151581525090565b610c0f91905b80821115610bcd5760008155600101610bfb565b9056fea165627a7a72305820fff3495e5c3c5fd154b4a42b96be446301cee72a1b58ad384d6283fb03db51c60029",
  "source": "pragma solidity ^0.5.0;\n\n//the contract\ncontract DealList {\n  uint public taskCount = 0;\n \n  //functions for converting into string \n\n  function toString(address account) public pure returns(string memory) {\n    return toString(abi.encodePacked(account));\n}\n\n  function toString(uint256 value) public pure returns(string memory) {\n      return toString(abi.encodePacked(value));\n  }\n\n  function toString(bytes32 value) public pure returns(string memory) {\n      return toString(abi.encodePacked(value));\n  }\n\n  function toString(bytes memory data) public pure returns(string memory) {\n      bytes memory alphabet = \"0123456789abcdef\";\n\n      bytes memory str = new bytes(2 + data.length * 2);\n      str[0] = \"0\";\n      str[1] = \"x\";\n      for (uint i = 0; i < data.length; i++) {\n          str[2+i*2] = alphabet[uint(uint8(data[i] >> 4))];\n          str[3+i*2] = alphabet[uint(uint8(data[i] & 0x0f))];\n      }\n      return string(str);\n  }\n\n  struct Task {\n    uint id;\n    string content;\n    bool completed;\n  }\n\n  mapping(uint => Task) public tasks;\n\n  event TaskCreated(\n    uint id,\n    string content,\n    bool completed\n  );\n\n  event TaskCompleted(\n    uint id,\n    bool completed\n  );\n\n  constructor() public {\n    createTask(\"Welcome to Ayygree\");\n  }\n\n  function createTask(string memory _content) public {\n    taskCount ++;\n    address a = msg.sender;\n    tasks[taskCount] = Task(taskCount, string(abi.encodePacked(toString(a),\" says \",_content)), false);\n    emit TaskCreated(taskCount, string(abi.encodePacked(toString(a),_content)), false);\n  }\n\n  function toggleCompleted(uint _id) public {\n    Task memory _task = tasks[_id];\n    _task.completed = !_task.completed;\n    tasks[_id] = _task;\n    emit TaskCompleted(_id, _task.completed);\n  }\n\n\n}",
  "sourcePath": "/home/banks/Documents/even sem 2021/blockchain/final/contracts/DealList.sol",
  "compiler": {
    "name": "solc",
    "version": "0.5.0+commit.1d4f565a.Emscripten.clang"
  },
  "schemaVersion": "3.0.1",
  "updatedAt": "2021-04-27T05:09:03.871Z",
  "devdoc": {
    "methods": {}
  },
  "userdoc": {
    "methods": {}
  }
}